:020000001EC020
:10000200FECFFDCFFCCFFBCFFACFF9CFF8CF42C066
:10001200F6CFF5CFF4CFF3CFF2CFF1CFF0CFEFCFD2
:10002200EECFEDCF0100FF000000F981BAABC36B48
:100032007BA1FBEB0500050026000000F894EE27EB
:10004200ECBBF1E0FBBFEBBFE5BF8DE0A2E0BB275D
:10005200ED938A95E9F780E094E0A0E6ED930197AD
:10006200E9F7E6E3F0E085919591009761F0A591BB
:10007200B59105901590BF01F00105900D92019781
:10008200E1F7FB01F0CFEFE5EDBFE4E0EEBFC0E644
:10009200D1E003C10A921A92FA926A937A938A93EE
:1000A2009A93AA93BA93EA93FA93EFB7EA93E8EE94
:1000B200EDBDE0E0ECBDE1E0E51531F4D401E8EEA0
:1000C200F3E03AD14E2E27C0E2E0E51551F4D40117
:1000D200E8EEF3E044D1DF01E4E6F0E02DD14E2E6C
:1000E2001AC0E3E0E51551F4D401E4E6F0E037D1BB
:1000F200DF01EAE0F0E020D14E2E0DC0E4E0E5158C
:1001020031F4D401EAE0F0E02AD14E2E04C0E5E059
:10011200E51509F4472C5A92A42D14D05394E5E026
:10012200E51510F4E1E05E2EE991EFBFF991E99156
:10013200B991A9919991899179916991F9901990BF
:1001420009901895AA930ED11FEF00E0EA81F0E022
:10015200309711F415E035C0E130A0E0FA0711F450
:100162001DE72FC0E230A0E0FA0711F416E429C01F
:10017200E330A0E0FA0711F414E523C0E430A0E074
:10018200FA0711F41CE31DC0E530A0E0FA0711F4F0
:1001920014E917C0E630A0E0FA0711F414E811C020
:1001A200E730A0E0FA0711F41DE50BC0E830A0E04B
:1001B200FA0711F414E005C0E930A0E0FA0709F4E7
:1001C20014E1EB81F0E0E130A0E0FA0711F40DEF69
:1001D20019C0E230A0E0FA0711F40BEF13C0E330CC
:1001E200A0E0FA0719F407EF1B7F0CC0E430A0E08F
:1001F200FA0711F40FED06C0E530A0E0FA0711F49A
:100202000FEB1A810A93A0E07AD01A93A1E077D07B
:10021200ACD024960895AA93E881F0E0E130A0E002
:10022200FA0711F4EFED1DC0E230A0E0FA0711F475
:10023200EFEE17C0E330A0E0FA0711F4E7EF11C0C8
:10024200E430A0E0FA0711F4EBEF0BC0E530A0E0D8
:10025200FA0711F4EDEF05C0E630A0E0FA0711F459
:10026200EEEF7E2E21960895989902C0A1E013C068
:10027200999902C0A2E00FC09A9902C0A3E00BC0F4
:100282009B9902C0A4E007C09C9902C0A5E003C0EC
:100292009D9902C0A6E0BFDF0895EAE2E7BBE0E075
:1002A200E8BBE4BBEFE3E5BBEFEDE1BBE0E0E2BBC3
:1002B200E3BFE2BFEFBDE2E0EEBDEFEDEDBDEAE987
:1002C200ECBDE0E0E7BDE6BDEBBDEABDE9BDE8BDE2
:1002D200E2BDE5BDE4BDE3BDE4E0E9BFE0E0E5BFCA
:1002E200EAB9E0E8E8B9E0E0E0BFE6B9EDB9E6BFB7
:1002F2007894E2EDF4E04F01B7DFFECFFFCFAA938F
:100302001A9310E0183080F4EA81E078E03811F4B2
:10031200C39A01C0C398EA81F0E0EE0FFF1FEA839F
:10032200C59AC5981F5FEECFE981E03011F0C19AFE
:10033200C1981881239608950024112490E1AA0FF0
:10034200BB1F001C111C0E1A1F0A18F40E0E1F1ED2
:1003520001C0A1609A9599F7FD01D0010895ECDFE3
:10036200FD0108951A930A93089519810881089549
:00000001FF
