:080000001AC0FECFFDCFFCCFBA
:10000800FBCFFACFF9CFF8CF3EC0F6CFF5CFF4CF7C
:10001800F3CFF2CFF1CFF0CFEFCFEECFEDCF01009E
:10002800FF00000000000700070026000000F89409
:10003800EE27ECBBF1E0FBBFEBBFE5BF8DE0A2E034
:10004800BB27ED938A95E9F780E094E0A0E6ED936D
:100058000197E9F7EEE2F0E085919591009761F05C
:10006800A591B59105901590BF01F00105900D92ED
:100078000197E1F7FB01F0CFEFE5EDBFE4E0EEBF5C
:10008800C0E6D1E03DC30A921A92FA926A937A9333
:100098008A939A93AA93BA93EA93FA93EFB7EA9357
:1000A800E8EEEDBDE0E0ECBDE1E0E71531F4D501A7
:1000B800E8EEF3E038D56E2E27C0E2E0E71551F4FC
:1000C800D501E8EEF3E067D5DF01E4E6F0E02BD5F3
:1000D8006E2E1AC0E3E0E71551F4D501E4E6F0E02E
:1000E8005AD5DF01EAE0F0E01ED56E2E0DC0E4E03F
:1000F800E71531F4D501EAE0F0E04DD56E2E04C0E5
:10010800E5E0E71509F4692CE72D7394EA93A62D29
:1001180013D0E5E0E71510F4E1E07E2EE991EFBF9A
:10012800F991E991B991A9919991899179916991F7
:10013800F990199009901895AA9334D51FEF00E00B
:10014800EA81F0E0309711F415E035C0E130A0E025
:10015800FA0711F41DE72FC0E230A0E0FA0711F406
:1001680016E429C0E330A0E0FA0711F414E523C02F
:10017800E430A0E0FA0711F41CE31DC0E530A0E06C
:10018800FA0711F414E917C0E630A0E0FA0711F4F1
:1001980014E811C0E730A0E0FA0711F41DE50BC020
:1001A800E830A0E0FA0711F414E005C0E930A0E057
:1001B800FA0709F414E1EB81F0E0E130A0E0FA0776
:1001C80011F40DEF19C0E230A0E0FA0711F40BEFBB
:1001D80013C0E330A0E0FA0719F407EF1B7F0CC047
:1001E800E430A0E0FA0711F40FED06C0E530A0E016
:1001F800FA0711F40FEB1A810A93A0E0BBD21A9305
:10020800A1E0B8D2D2D424960895AA93E881F0E068
:10021800E130A0E0FA0711F4EFED1DC0E230A0E0F4
:10022800FA0711F4EFEE17C0E330A0E0FA0711F473
:10023800E7EF11C0E430A0E0FA0711F4EBEF0BC0D0
:10024800E530A0E0FA0711F4EDEF05C0E630A0E0D4
:10025800FA0711F4EEEF9E2E64C0AA93E881F0E04D
:10026800309721F491989298939833C0E130A0E0A8
:10027800FA0721F4919A929893982BC0E230A0E063
:10028800FA0721F49198929A939823C0E330A0E05A
:10029800FA0721F4919A929A93981BC0E430A0E04F
:1002A800FA0719F49198929813C0E530A0E0FA077C
:1002B80019F4919A92980CC0E630A0E0FA0711F46C
:1002C800919805C0E730A0E0FA0719F4919A929A3C
:1002D800939A27C0AA93E881F0E0E130A0E0FA07FA
:1002E80011F4A1E01DC0E230A0E0FA0711F4A3E088
:1002F80017C0E330A0E0FA0711F4A5E011C0E4301C
:10030800A0E0FA0711F4A0E00BC0E530A0E0FA077E
:1003180011F4A2E005C0E630A0E0FA0711F4A4E069
:100328009CDF21960895989949C0A1E06EDFA1E06D
:10033800D1DFE82D8394A4E6B1E0F0E0EE0FFF1FD3
:10034800EA0FFB1FFF93EF93E1E0EA93E7E1EA93FB
:10035800A3E05DD2AF91BF91ED93FC93E4E18E16DB
:1003680008F08824E0E0E0936001E0936101E09305
:100378006201E0936301DD24E4E1DE16F0F4ED2D83
:10038800A4E6B1E0F0E0EE0FFF1FAE0FBF1F06D4EA
:10039800A0916001B0916101809162019091630127
:1003A80066277727A2D3E0936001F09361016093F9
:1003B800620170936301D394DFCF96C1999949C0C4
:1003C800A2E023DFA2E086DFE82D8394A4E6B1E073
:1003D800F0E0EE0FFF1FEA0FFB1FFF93EF93E1E042
:1003E800EA93E7E1EA93A3E012D2AF91BF91ED93CC
:1003F800FC93E4E18E1608F08824E0E0E0936001C5
:10040800E0936101E0936201E0936301DD24E4E19C
:10041800DE16F0F4ED2DA4E6B1E0F0E0EE0FFF1FDC
:10042800AE0FBF1FBBD3A0916001B0916101809155
:100438006201909163016627772757D3E0936001A3
:10044800F09361016093620170936301D394DFCFED
:100458004BC19A9949C0A3E0D8DEA3E03BDFE82D61
:100468008394A4E6B1E0F0E0EE0FFF1FEA0FFB1F54
:10047800FF93EF93E1E0EA93E7E1EA93A3E0C7D1C2
:10048800AF91BF91ED93FC93E4E18E1608F08824B8
:10049800E0E0E0936001E0936101E0936201E093A2
:1004A8006301DD24E4E1DE16F0F4ED2DA4E6B1E00D
:1004B800F0E0EE0FFF1FAE0FBF1F70D3A0916001D9
:1004C800B09161018091620190916301662777275D
:1004D8000CD3E0936001F093610160936201709323
:1004E8006301D394DFCF00C19B9959C0A4E08DDE8E
:1004F800A4E0F0DEE82D8394A4E6B1E0F0E0EE0F8E
:10050800FF1FEA0FFB1FFF93EF93E1E0EA93E7E198
:10051800EA93A3E07CD1AF91BF91ED93FC93E4E122
:100528008E1608F08824E0E0E0936001E093610112
:10053800E0936201E0936301DD24E4E1DE16F0F468
:10054800ED2DA4E6B1E0F0E0EE0FFF1FAE0FBF1FE8
:1005580025D3A0916001B0916101809162019091D1
:10056800630166277727C1D2E0936001F0936101A8
:100578006093620170936301D394DFCFA09160010F
:10058800B0916101E4E1F0E0CED26627772731D25D
:10059800A3E3B3E383E79FE35AD2F2D1ACC09C99BB
:1005A80059C0A5E032DEA5E095DEE82D8394A4E6E7
:1005B800B1E0F0E0EE0FFF1FEA0FFB1FFF93EF9390
:1005C800E1E0EA93E7E1EA93A3E021D1AF91BF919B
:1005D800ED93FC93E4E18E1608F08824E0E0E093C4
:1005E8006001E0936101E0936201E0936301DD241F
:1005F800E4E1DE16F0F4ED2DA4E6B1E0F0E0EE0F54
:10060800FF1FAE0FBF1FCAD2A0916001B091610158
:1006180080916201909163016627772766D2E09303
:100628006001F09361016093620170936301D39458
:10063800DFCFA0916001B0916101E4E1F0E073D2F5
:1006480066277727D6D1A3E3B3E383E79FE3FFD1F8
:1006580097D151C09D9950C0A6E0D7DDA6E03ADEFB
:10066800E82D8394A4E6B1E0F0E0EE0FFF1FEA0F57
:10067800FB1FFF93EF93E1E0EA93E7E1EA93A3E03E
:10068800C6D0AF91BF91ED93FC93E4E18E1608F0CC
:100698008824E0E0E0936001E0936101E093620167
:1006A800E0936301DD24E4E1DE16F0F4ED2DA4E629
:1006B800B1E0F0E0EE0FFF1FAE0FBF1F6FD2A091A9
:1006C8006001B09161018091620190916301662798
:1006D80077270BD2E0936001F09361016093620188
:1006E80070936301D394DFCFA0916001B091610151
:1006F800E4E1F0E018D25F01A8ECB0E00AD1089577
:10070800EAE2E7BBE0E0E8BBE4BBEFE3E5BBEFED23
:10071800E1BBE0E0E2BBE3BFE2BFEFBDE2E0EEBD7C
:10072800EFEDEDBDEAE9ECBDE0E0E7BDE6BDEBBD10
:10073800EABDE9BDE8BDE2BDE5BDE4BDE3BDE4E079
:10074800E9BFE0E0E5BFEAB9E0E8E8B9E0E0E0BF2A
:10075800E6B9EDB9E6BF7894E8EBF2E25F01A0EA0A
:10076800BFE0D7D0909AA4E6B0E0D3D09098DBDD74
:10077800FECFFFCFAA931A9310E0183080F4EA81D5
:10078800E078E03811F4C39A01C0C398EA81F0E038
:10079800EE0FFF1FEA83C59AC5981F5FEECFE98168
:1007A800E03011F0C19AC198188119C0AA93FAD102
:1007B8000A8110E0183090F4E02FE078E03811F466
:1007C800949801C0949A979888EB8A95F1F7979A2C
:1007D80088EB8A95F1F7000F1F5FECCFE6D12396DF
:1007E8000895E0D100E010E0183068F4979888EB9D
:1007F8008A95F1F7979A85990F5F88EB8A95F1F7B3
:10080800000F1F5FF1CFE02F099119910895AA9366
:1008180028971A9310E0143050F4E12FF0E0DE012D
:100828001596AE0FBF1FE0E0EC931F5FF4CFEB858A
:10083800F0E0E130A0E0FA0721F4969AC098C09859
:100848000FC0E230A0E0FA0721F49698C09AC09849
:1008580007C0E330A0E0FA0719F49698C098C09A48
:1008680084E191E00197F1F7EA85EF73EA87AA85B9
:100878009DDF84E191E00197F1F710E0E9851E170B
:1008880070F4E12FF0E0DE011596EA0FFB1FFF93ED
:10089800EF93A7DFAF91BF91EC931F5FEFCF84E198
:1008A80091E00197F1F79698C098C098E0E0E98345
:1008B800EA83EB83EC8310E0E9851E17F0F4A98145
:1008C800BA818B819C81E8E01DD1E983FA836B832F
:1008D8007C83E12FF0E0DE011596AE0FBF1FEC918F
:1008E800F0E0A981BA818B819C8118D1FED0E9837F
:1008F800FA836B837C831F5FDFCFA981BA818B81E9
:100908009C81E0EEF1E060E070E020D118812C9647
:100918000895109639F08DEC9AE00197F1F7A895B3
:100928001197C9F70895552342F4503811F4E0FFA0
:1009380004C03196691F791F6BF050E8572711F4EE
:100948005F9373C05F3F31F0660F000C5795679552
:10095800752F08955F9300200AF073C06CC050E8AB
:10096800192E1522880F991F9527550F879550E83E
:10097800072E0522660F771F7527550F679508956F
:10098800689401C0E8945F93F2DF703818F07F3FF5
:1009980008F44BC056E1571BAAF4519558300EF491
:1009A800593030F0EFEFFFEF6FEF7FE777F91AC0BC
:1009B80077275523B9F0EE0FFF1F661F771F5A954B
:1009C800D1F710C07727583028F0EF2FF62F672F70
:1009D8005850F9CF552331F076956795F795E795F7
:1009E8005A95D1F700200AF485D05F91089568944C
:1009F80001C0E894309760407040B1F0002426F0C0
:100A0800772312F4009476D0172E7EE1112032F06D
:100A18007A95EE0FFF1F661F111CF9CFEF2FF62FE7
:100A2800612D5F938ADF5F910895EE27FF27662780
:100A380077275F910895EFEFFFEF6FE77FEF5F9103
:100A48000895EFEFFFEF6FE77FE75F9108955F93FA
:100A580086DF703851F3903841F301240894791FE8
:100A680023F41CF300203AF3ECCF0F921F932F933B
:100A78003F934F93112722279927689FA0018F9FA3
:100A8800302D410D591F6B9F300D411D591F8E9FF1
:100A980027D0BF9F25D06A9F23D0BE9F1DD0AF9F70
:100AA8001BD0AE9F110D291F391F491F591FE32F56
:100AB800F42F652F522F4F913F912F911F910F9037
:100AC80066232AF0550FEE1FFF1F661F02C073959D
:100AD8004BF229DF5F910895100D211D391F02C0C7
:100AE800200D311D491F591F0895EA0FFB1F681F6C
:100AF800791F0895F09560957095E195FF4F6F4FB8
:100B08007F4F0895EE230E2EFD01BC0131F0EE0F4C
:100B1800FF1F661F771F0A94D1F708956F2F660F7E
:100B2800660B762F08950024112490E1AA0FBB1FAD
:100B3800001C111C0E1A1F0A18F40E0E1F1E01C0ED
:100B4800A1609A9599F7FD01D00108953F934F93BD
:100B58005F93002411244427552730E2AA0FBB1FB6
:100B6800881F991F001C111C441F551F0E1A1F0AAD
:100B7800460B570B28F40E0E1F1E461F571F01C0A9
:100B8800A1603A9559F7FD01BC01D001CA015F91F6
:100B98004F913F910895C7DFFD010895ED91FC91B4
:100BA800119708951A930A93089519810881089551
:00000001FF
