:0400000019C0FECF56
:10000400FDCFFCCFFBCFFACFF9CFF8CF3DC0F6CF71
:10001400F5CFF4CFF3CFF2CFF1CFF0CFEFCFEECFD8
:10002400EDCF0100FF0000000500070026000000DE
:10003400F894EE27ECBBF1E0FBBFEBBFE5BF8DE02E
:10004400A2E0BB27ED938A95E9F780E094E0A0E66F
:10005400ED930197E9F7ECE2F0E085919591009733
:1000640061F0A591B59105901590BF01F00105903F
:100074000D920197E1F7FB01F0CFEFE5EDBFE4E06E
:10008400EEBFC0E6D1E075C10A921A92FA926A9361
:100094007A938A939A93AA93BA93EA93FA93EFB7CB
:1000A400EA93E8EEEDBDE0E0ECBDE1E0E71531F404
:1000B400D501E8EEF3E0E0D26E2E27C0E2E0E715CA
:1000C40051F4D501E8EEF3E0EAD2DF01E4E6F0E032
:1000D400D3D26E2E1AC0E3E0E71551F4D501E4E65D
:1000E400F0E0DDD2DF01EAE0F0E0C6D26E2E0DC012
:1000F400E4E0E71531F4D501EAE0F0E0D0D26E2E69
:1001040004C0E5E0E71509F4692CE72D7394EA933C
:10011400A62D13D0E5E0E71510F4E1E07E2EE99179
:10012400EFBFF991E991B991A99199918991799147
:100134006991F990199009901895AA93B3D21FEF79
:1001440000E0EA81F0E0309711F415E035C0E130C9
:10015400A0E0FA0711F41DE72FC0E230A0E0FA078F
:1001640011F416E429C0E330A0E0FA0711F414E511
:1001740023C0E430A0E0FA0711F41CE31DC0E5300D
:10018400A0E0FA0711F414E917C0E630A0E0FA077A
:1001940011F414E811C0E730A0E0FA0711F41DE5EA
:1001A4000BC0E830A0E0FA0711F414E005C0E93010
:1001B400A0E0FA0709F414E1EB81F0E0E130A0E0FB
:1001C400FA0711F40DEF19C0E230A0E0FA0711F4B8
:1001D4000BEF13C0E330A0E0FA0719F407EF1B7F1D
:1001E4000CC0E430A0E0FA0711F40FED06C0E530CE
:1001F400A0E0FA0711F40FEB1A810A93A0E0F9D0FA
:100204001A93A1E0F6D051D224960895AA93E881D6
:10021400F0E0E130A0E0FA0711F4EFED1DC0E230A8
:10022400A0E0FA0711F4EFEE17C0E330A0E0FA07FC
:1002340011F4E7EF11C0E430A0E0FA0711F4EBEF9A
:100244000BC0E530A0E0FA0711F4EDEF05C0E6308D
:10025400A0E0FA0711F4EEEF9E2E64C0AA93E881A1
:10026400F0E0309721F491989298939833C0E1305C
:10027400A0E0FA0721F4919A929893982BC0E23067
:10028400A0E0FA0721F49198929A939823C0E3305E
:10029400A0E0FA0721F4919A929A93981BC0E43053
:1002A400A0E0FA0719F49198929813C0E530A0E001
:1002B400FA0719F4919A92980CC0E630A0E0FA0774
:1002C40011F4919805C0E730A0E0FA0719F4919A67
:1002D400929A939A27C0AA93E881F0E0E130A0E0D3
:1002E400FA0711F4A1E01DC0E230A0E0FA0711F40E
:1002F400A3E017C0E330A0E0FA0711F4A5E011C0B1
:10030400E430A0E0FA0711F4A0E00BC0E530A0E06F
:10031400FA0711F4A2E005C0E630A0E0FA0711F4F0
:10032400A4E09CDF21960895989904C0A1E06EDFB3
:10033400A1E01DC0999904C0A2E068DFA2E017C043
:100344009A9904C0A3E062DFA3E011C09B9904C0A2
:10035400A4E05CDFA4E00BC09C9904C0A5E056DFD8
:10036400A5E005C09D9904C0A6E050DFA6E0B3DF78
:100374000895EAE2E7BBE0E0E8BBE4BBEFE3E5BBFA
:10038400EFEDE1BBE0E0E2BBE3BFE2BFEFBDE2E0E3
:10039400EEBDEFEDEDBDEAE9ECBDE0E0E7BDE6BDA5
:1003A400EBBDEABDE9BDE8BDE2BDE5BDE4BDE3BD2D
:1003B400E4E0E9BFE0E0E5BFEAB9E0E8E8B9E0E09D
:1003C400E0BFE6B9EDB9E6BF7894E8EBF2E25F018D
:1003D40027D1A0EABFE030D1A7DFE1E0EA93E7E16B
:1003E400EA93A3E09AD05F01A4E6B0E025D1F4CF6C
:1003F400FFCFAA931A9310E0183070F4EA81E078E2
:10040400E03811F4C39A01C0C398EA81EE0FEA837D
:10041400C59AC5981F5FF0CFE981E03011F0C19A09
:10042400C198188119C0AA933DD10A8110E01830EF
:1004340090F4E02FE078E03811F4949801C0949A95
:10044400979888EB8A95F1F7979A88EB8A95F1F754
:10045400000F1F5FECCF29D12396089523D100E02C
:1004640010E0183068F4979888EB8A95F1F7979A1A
:1004740085990F5F88EB8A95F1F7000F1F5FF1CF25
:10048400E02F099119910895AA9324971A93EF8163
:10049400E983EE81EA83ED81EB83EA85F0E0E130E4
:1004A400A0E0FA0721F4969AC098C0980FC0E230F1
:1004B400A0E0FA0721F49698C09AC09807C0E330E8
:1004C400A0E0FA0719F49698C098C09AE985EF73EA
:1004D400E987E068E98784E191E00197F1F7A9856C
:1004E400A2DF84E191E00197F1F710E0E8851E179F
:1004F40050F4E12FF0E0DE011196AE0FBF1FAC9176
:1005040092DF1F5FF3CF84E191E00197F1F79698B2
:10051400C098C09818812B960895AA9328971A9387
:1005240010E0143050F4E12FF0E0DE011596AE0F28
:10053400BF1FE0E0EC931F5FF4CFEB85F0E0E13008
:10054400A0E0FA0721F4969AC098C0980FC0E23050
:10055400A0E0FA0721F49698C09AC09807C0E33047
:10056400A0E0FA0719F49698C098C09A84E191E043
:100574000197F1F7EA85EF73EA87AA8554DF84E1EE
:1005840091E00197F1F710E0E9851E1770F4E12F6F
:10059400F0E0DE011596EA0FFB1FFF93EF935EDF99
:1005A400AF91BF91EC931F5FEFCF84E191E001978E
:1005B400F1F79698C098C098E0E0E983EA83EB836A
:1005C400EC8310E0E9851E17F0F4A981BA818B81D0
:1005D4009C81E8E040D0E983FA836B837C83E12F3C
:1005E400F0E0DE011596AE0FBF1FEC91F0E0A9819B
:1005F400BA818B819C813BD029D0E983FA836B83B8
:100604007C831F5FDFCFAD81BB27EE81F0E0AE0FAF
:10061400BF1FEF81F0E0EA0FFB1F18812C960895AD
:10062400E1E0EA93E9E0EA93E2E0EA93E0E0EA93C6
:10063400EA93A0E029DF0895109639F08DEC9AE052
:100644000197F1F7A8951197C9F70895EA0FFB1FD1
:10065400681F791F0895EE230E2EFD01BC0131F0B1
:10066400EE0FFF1F661F771F0A94D1F708956F2FAF
:10067400660F660B762F08950024112490E1AA0FCB
:10068400BB1F001C111C0E1A1F0A18F40E0E1F1E8D
:1006940001C0A1609A9599F7FD01D0010895ECDF9E
:1006A400FD0108951A930A93089519810881089504
:00000001FF
