:0C0000001AC0FECFFDCFFCCFFBCFFACF23
:10000C00F9CFF8CF3EC0F6CFF5CFF4CFF3CFF2CF88
:10001C00F1CFF0CFEFCFEECFEDCF0100FF0000001E
:10002C0000000700070026000000F894EE27ECBB48
:10003C00F1E0FBBFEBBFE5BF8DE0A2E0BB27ED938A
:10004C008A95E9F780E094E0A0E6ED930197E9F753
:10005C00EEE2F0E085919591009761F0A591B59154
:10006C0005901590BF01F00105900D920197E1F7F5
:10007C00FB01F0CFEFE5EDBFE4E0EEBFC0E6D1E071
:10008C005DC70A921A92FA926A937A938A939A9318
:10009C00AA93BA93EA93FA93EFB7EA93E8EEEDBD1D
:1000AC00E0E0ECBDE1E0E71531F4D501E8EEF3E07A
:1000BC0024D96E2E27C0E2E0E71551F4D501E8EE05
:1000CC00F3E053D9DF01E4E6F0E017D96E2E1AC045
:1000DC00E3E0E71551F4D501E4E6F0E046D9DF01A1
:1000EC00EAE0F0E00AD96E2E0DC0E4E0E71531F439
:1000FC00D501EAE0F0E039D96E2E04C0E5E0E71551
:10010C0009F4692CE72D7394EA93A62D1CD0E5E035
:10011C00E71510F4E1E07E2EA0910402A83C28F42F
:10012C00E0910402EF5FE0930402E991EFBFF991D3
:10013C00E991B991A9919991899179916991F990E4
:10014C00199009901895AA9331D91FEF00E0EA8114
:10015C00F0E0309711F415E035C0E130A0E0FA077B
:10016C0011F41DE72FC0E230A0E0FA0711F416E4F9
:10017C0029C0E330A0E0FA0711F414E523C0E43001
:10018C00A0E0FA0711F41CE31DC0E530A0E0FA076B
:10019C0011F414E917C0E630A0E0FA0711F414E8E2
:1001AC0011C0E730A0E0FA0711F41DE50BC0E830F0
:1001BC00A0E0FA0711F414E005C0E930A0E0FA075A
:1001CC0009F414E1EB81F0E0E130A0E0FA0711F45E
:1001DC000DEF19C0E230A0E0FA0711F40BEF13C0D9
:1001EC00E330A0E0FA0719F407EF1B7F0CC0E430F2
:1001FC00A0E0FA0711F40FED06C0E530A0E0FA0715
:10020C0011F40FEB1A810A93A0E038D71A93A1E0EE
:10021C0035D7D3D824960895AA93E881A0910502E6
:10022C00EA1759F0909AA2E3B0E036D89098A2E37E
:10023C00B0E032D8E881E0930502E881F0E0E130EB
:10024C00A0E0FA0711F4EFED1DC0E230A0E0FA07D0
:10025C0011F4EFEE17C0E330A0E0FA0711F4E7EF6A
:10026C0011C0E430A0E0FA0711F4EBEF0BC0E5305D
:10027C00A0E0FA0711F4EDEF05C0E630A0E0FA07B4
:10028C0011F4EEEF9E2E64C0AA93E881F0E0309753
:10029C0021F491989298939833C0E130A0E0FA073A
:1002AC0021F4919A929893982BC0E230A0E0FA072F
:1002BC0021F49198929A939823C0E330A0E0FA0726
:1002CC0021F4919A929A93981BC0E430A0E0FA071B
:1002DC0019F49198929813C0E530A0E0FA0719F43C
:1002EC00919A92980CC0E630A0E0FA0711F491981C
:1002FC0005C0E730A0E0FA0719F4919A929A939A04
:10030C0027C0AA93E881F0E0E130A0E0FA0711F4ED
:10031C00A1E01DC0E230A0E0FA0711F4A3E017C081
:10032C00E330A0E0FA0711F4A5E011C0E430A0E03E
:10033C00FA0711F4A0E00BC0E530A0E0FA0711F4C5
:10034C00A2E005C0E630A0E0FA0711F4A4E09CDFBF
:10035C0021960895EF97EF97A29724D89899FAC011
:10036C00A1E05ADFA1E0CDDFE3E0EC1508F0F1C02D
:10037C00CC24E82D8394A4E6B1E0F0E0B4D7EA0FE6
:10038C00FB1FFF93EF93E1E0EA93E7E1EA93A3E02D
:10039C0009D7AF91BF91F2D7E8E28E1608F0882406
:1003AC00E0E0E0936001E0936101E0936201E0938F
:1003BC006301DD24E8E2DE16D8F4ED2DA4E6B1E00D
:1003CC00F0E091D7AE0FBF1FD3D7A0916001B091D1
:1003DC006101809162019091630168D7E0936001A3
:1003EC00F09361016093620170936301D394E2CF47
:1003FC00DD24E8E2DE16A0F4ED2DF0E0DE01169629
:10040C0072D7EA0FFB1F0F01ED2DA4E6B1E0F0E06F
:10041C006AD7AE0FBF1FACD7D001B0D7D394E9CFFA
:10042C00DD24E8E2DE1608F048C01D2D183208F075
:10043C0042C0ED2DF0E0DE01169655D7AE0FBF1F72
:10044C0097D77F936F93FF93EF93E12FF0E0DE014B
:10045C00169649D7AE0FBF1F8BD7AF91BF918F9117
:10046C009F919BD730F5ED2DF0E0DE0116963BD732
:10047C00AE0FBF1F2D913C91ED2DF0E0DE011696D5
:10048C0032D7EA0FFB1F0F01E12FF0E0DE011696C9
:10049C002AD7AE0FBF1F6CD7D00170D7E12FF0E079
:1004AC00DE01169620D7AE0FBF1FF90166277727FE
:1004BC0065D71F5FBBCFD394B4CFE0E0E09360016E
:1004CC00E0936101E0936201E0936301EDE0DE2EC5
:1004DC00EBE1DE16D8F4ED2DA4E6B1E0F0E003D7A5
:1004EC00AE0FBF1F45D7A0916001B0916101809103
:1004FC00620190916301DAD6E0936001F09361019F
:10050C006093620170936301D394E2CFA0910402D3
:10051C00A83CF9F4E0E0E0930402A0916001B091F2
:10052C0061018091620190916301EAE0F1E060E089
:10053C0070E0F6D666277727DF01EEE0F0E0DDD637
:10054C00AF014536E0E05E0710F05A0102C0AA2464
:10055C00BB24EBC49999FAC0A2E05EDEA2E0D1DE26
:10056C00E3E0EC1508F0F1C0CC24E82D8394A4E66C
:10057C00B1E0F0E0B8D6EA0FFB1FFF93EF93E1E098
:10058C00EA93E7E1EA93A3E00DD6AF91BF91F6D6DB
:10059C00E8E28E1608F08824E0E0E0936001E09336
:1005AC006101E0936201E0936301DD24E8E2DE1671
:1005BC00D8F4ED2DA4E6B1E0F0E095D6AE0FBF1F58
:1005CC00D7D6A0916001B0916101809162019091A8
:1005DC0063016CD6E0936001F0936101609362015A
:1005EC0070936301D394E2CFDD24E8E2DE16A0F42D
:1005FC00ED2DF0E0DE01169676D6EA0FFB1F0F010B
:10060C00ED2DA4E6B1E0F0E06ED6AE0FBF1FB0D674
:10061C00D001B4D6D394E9CFDD24E8E2DE1608F09D
:10062C0048C01D2D183208F042C0ED2DF0E0DE015F
:10063C00169659D6AE0FBF1F9BD67F936F93FF9321
:10064C00EF93E12FF0E0DE0116964DD6AE0FBF1FF3
:10065C008FD6AF91BF918F919F919FD630F5ED2D95
:10066C00F0E0DE0116963FD6AE0FBF1F2D913C91E8
:10067C00ED2DF0E0DE01169636D6EA0FFB1F0F01CA
:10068C00E12FF0E0DE0116962ED6AE0FBF1F70D60E
:10069C00D00174D6E12FF0E0DE01169624D6AE0F11
:1006AC00BF1FF9016627772769D61F5FBBCFD3948D
:1006BC00B4CFE0E0E0936001E0936101E09362016C
:1006CC00E0936301EDE0DE2EEBE1DE16D8F4ED2DC8
:1006DC00A4E6B1E0F0E007D6AE0FBF1F49D6A0915B
:1006EC006001B09161018091620190916301DED54E
:1006FC00E0936001F0936101609362017093630178
:10070C00D394E2CFA0910402A83CF9F4E0E0E0938A
:10071C000402A0916001B0916101809162019091FD
:10072C006301E4EFF0E060E070E0FAD5662777272C
:10073C00DF01EEE0F0E0E1D5AF014536E0E05E0729
:10074C0010F05A0102C0AA24BB24EFC39A99FAC034
:10075C00A3E062DDA3E0D5DDE3E0EC1508F0F1C029
:10076C00CC24E82D8394A4E6B1E0F0E0BCD5EA0FEC
:10077C00FB1FFF93EF93E1E0EA93E7E1EA93A3E039
:10078C0011D5AF91BF91FAD5E8E28E1608F0882406
:10079C00E0E0E0936001E0936101E0936201E0939B
:1007AC006301DD24E8E2DE16D8F4ED2DA4E6B1E019
:1007BC00F0E099D5AE0FBF1FDBD5A0916001B091D1
:1007CC006101809162019091630170D5E0936001A9
:1007DC00F09361016093620170936301D394E2CF53
:1007EC00DD24E8E2DE16A0F4ED2DF0E0DE01169635
:1007FC007AD5EA0FFB1F0F01ED2DA4E6B1E0F0E076
:10080C0072D5AE0FBF1FB4D5D001B8D5D394E9CFF4
:10081C00DD24E8E2DE1608F048C01D2D183208F081
:10082C0042C0ED2DF0E0DE0116965DD5AE0FBF1F78
:10083C009FD57F936F93FF93EF93E12FF0E0DE0151
:10084C00169651D5AE0FBF1F93D5AF91BF918F9117
:10085C009F91A3D530F5ED2DF0E0DE01169643D532
:10086C00AE0FBF1F2D913C91ED2DF0E0DE011696E1
:10087C003AD5EA0FFB1F0F01E12FF0E0DE011696CF
:10088C0032D5AE0FBF1F74D5D00178D5E12FF0E073
:10089C00DE01169628D5AE0FBF1FF9016627772704
:1008AC006DD51F5FBBCFD394B4CFE0E0E093600174
:1008BC00E0936101E0936201E0936301EDE0DE2ED1
:1008CC00EBE1DE16D8F4ED2DA4E6B1E0F0E00BD5AB
:1008DC00AE0FBF1F4DD5A0916001B0916101809109
:1008EC00620190916301E2D4E0936001F0936101A5
:1008FC006093620170936301D394E2CFA0910402E0
:10090C00A83CF9F4E0E0E0930402A0916001B091FE
:10091C0061018091620190916301ECEFF0E060E085
:10092C0070E0FED466277727DF01EEE0F0E0E5D437
:10093C00AF014536E0E05E0710F05A0102C0AA2470
:10094C00BB24F3C29B99FAC0A4E066DCA4E0D9DC1A
:10095C00E3E0EC1508F0F1C0CC24E82D8394A4E678
:10096C00B1E0F0E0C0D4EA0FFB1FFF93EF93E1E09E
:10097C00EA93E7E1EA93A3E015D4AF91BF91FED4DB
:10098C00E8E28E1608F08824E0E0E0936001E09342
:10099C006101E0936201E0936301DD24E8E2DE167D
:1009AC00D8F4ED2DA4E6B1E0F0E09DD4AE0FBF1F5E
:1009BC00DFD4A0916001B0916101809162019091AE
:1009CC00630174D4E0936001F09361016093620160
:1009DC0070936301D394E2CFDD24E8E2DE16A0F439
:1009EC00ED2DF0E0DE0116967ED4EA0FFB1F0F0111
:1009FC00ED2DA4E6B1E0F0E076D4AE0FBF1FB8D475
:100A0C00D001BCD4D394E9CFDD24E8E2DE1608F0A3
:100A1C0048C01D2D183208F042C0ED2DF0E0DE016B
:100A2C00169661D4AE0FBF1FA3D47F936F93FF9321
:100A3C00EF93E12FF0E0DE01169655D4AE0FBF1FF9
:100A4C0097D4AF91BF918F919F91A7D430F5ED2D95
:100A5C00F0E0DE01169647D4AE0FBF1F2D913C91EE
:100A6C00ED2DF0E0DE0116963ED4EA0FFB1F0F01D0
:100A7C00E12FF0E0DE01169636D4AE0FBF1F78D40E
:100A8C00D0017CD4E12FF0E0DE0116962CD4AE0F11
:100A9C00BF1FF9016627772771D41F5FBBCFD39493
:100AAC00B4CFE0E0E0936001E0936101E093620178
:100ABC00E0936301EDE0DE2EEBE1DE16D8F4ED2DD4
:100ACC00A4E6B1E0F0E00FD4AE0FBF1F51D4A0915B
:100ADC006001B09161018091620190916301E6D354
:100AEC00E0936001F0936101609362017093630184
:100AFC00D394E2CFA0910402A83CF9F4E0E0E09397
:100B0C000402A0916001B091610180916201909109
:100B1C006301E4E1F1E060E070E002D4662777273E
:100B2C00DF01EEE0F0E0E9D3AF014536E0E05E072F
:100B3C0010F05A0102C0AA24BB24F7C19C99FAC038
:100B4C00A5E06ADBA5E0DDDBE3E0EC1508F0F1C025
:100B5C00CC24E82D8394A4E6B1E0F0E0C4D3EA0FF2
:100B6C00FB1FFF93EF93E1E0EA93E7E1EA93A3E045
:100B7C0019D3AF91BF9102D4E8E28E1608F0882405
:100B8C00E0E0E0936001E0936101E0936201E093A7
:100B9C006301DD24E8E2DE16D8F4ED2DA4E6B1E025
:100BAC00F0E0A1D3AE0FBF1FE3D3A0916001B091D1
:100BBC006101809162019091630178D3E0936001AF
:100BCC00F09361016093620170936301D394E2CF5F
:100BDC00DD24E8E2DE16A0F4ED2DF0E0DE01169641
:100BEC0082D3EA0FFB1F0F01ED2DA4E6B1E0F0E07C
:100BFC007AD3AE0FBF1FBCD3D001C0D3D394E9CFEF
:100C0C00DD24E8E2DE1608F048C01D2D183208F08D
:100C1C0042C0ED2DF0E0DE01169665D3AE0FBF1F7E
:100C2C00A7D37F936F93FF93EF93E12FF0E0DE0157
:100C3C00169659D3AE0FBF1F9BD3AF91BF918F9117
:100C4C009F91ABD330F5ED2DF0E0DE0116964BD332
:100C5C00AE0FBF1F2D913C91ED2DF0E0DE011696ED
:100C6C0042D3EA0FFB1F0F01E12FF0E0DE011696D5
:100C7C003AD3AE0FBF1F7CD3D00180D3E12FF0E06D
:100C8C00DE01169630D3AE0FBF1FF901662777270A
:100C9C0075D31F5FBBCFD394B4CFE0E0E09360017A
:100CAC00E0936101E0936201E0936301EDE0DE2EDD
:100CBC00EBE1DE16D8F4ED2DA4E6B1E0F0E013D3B1
:100CCC00AE0FBF1F55D3A0916001B091610180910F
:100CDC00620190916301EAD2E0936001F0936101AB
:100CEC006093620170936301D394E2CFA0910402EC
:100CFC00A83CF9F4E0E0E0930402A0916001B0910B
:100D0C0061018091620190916301E2E0F1E060E0A9
:100D1C0070E006D366277727DF01EEE0F0E0EDD236
:100D2C00AF014536E0E05E0710F05A0102C0AA247C
:100D3C00BB24FBC09D99F9C0A6E06EDAA6E0E1DA0F
:100D4C00E3E0EC1508F0F1C0CC24E82D8394A4E684
:100D5C00B1E0F0E0C8D2EA0FFB1FFF93EF93E1E0A4
:100D6C00EA93E7E1EA93A3E01DD2AF91BF9106D3DA
:100D7C00E8E28E1608F08824E0E0E0936001E0934E
:100D8C006101E0936201E0936301DD24E8E2DE1689
:100D9C00D8F4ED2DA4E6B1E0F0E0A5D2AE0FBF1F64
:100DAC00E7D2A0916001B0916101809162019091B4
:100DBC0063017CD2E0936001F09361016093620166
:100DCC0070936301D394E2CFDD24E8E2DE16A0F445
:100DDC00ED2DF0E0DE01169686D2EA0FFB1F0F0117
:100DEC00ED2DA4E6B1E0F0E07ED2AE0FBF1FC0D275
:100DFC00D001C4D2D394E9CFDD24E8E2DE1608F0AA
:100E0C0048C01D2D183208F042C0ED2DF0E0DE0177
:100E1C00169669D2AE0FBF1FABD27F936F93FF9321
:100E2C00EF93E12FF0E0DE0116965DD2AE0FBF1FFF
:100E3C009FD2AF91BF918F919F91AFD230F5ED2D95
:100E4C00F0E0DE0116964FD2AE0FBF1F2D913C91F4
:100E5C00ED2DF0E0DE01169646D2EA0FFB1F0F01D6
:100E6C00E12FF0E0DE0116963ED2AE0FBF1F80D20E
:100E7C00D00184D2E12FF0E0DE01169634D2AE0F11
:100E8C00BF1FF9016627772779D21F5FBBCFD39499
:100E9C00B4CFE0E0E0936001E0936101E093620184
:100EAC00E0936301EDE0DE2EEBE1DE16D8F4ED2DE0
:100EBC00A4E6B1E0F0E017D2AE0FBF1F59D2A0915B
:100ECC006001B09161018091620190916301EED15A
:100EDC00E0936001F0936101609362017093630190
:100EEC00D394E2CFA0910402A83CF9F4E0E0E093A3
:100EFC000402A0916001B091610180916201909116
:100F0C006301E5EEF0E060E070E00AD26627772737
:100F1C00DF01EEE0F0E0F1D1AF014536E0E05E0735
:100F2C0010F05A0102C0AA24BB24AAE0B0E0B4D14C
:100F3C00C3943FD2EF96EF96A89608952497E0E0DD
:100F4C00E883E983EA83EB83EAE2E7BBE0E0E8BB12
:100F5C00E4BBEFE3E5BBEFEDE1BBE0E0E2BBE3BFFD
:100F6C00E2BFEFBDE2E0EEBDEFEDEDBDEAE9ECBDB9
:100F7C00E0E0E7BDE6BDEBBDEABDE9BDE8BDE2BD25
:100F8C00E5BDE4BDE3BDE4E0E9BFE0E0E5BFEAB9FF
:100F9C00E0E8E8B9E0E0E0BFE6B9EDB9E6BF789487
:100FAC00E8EBF2E25F01E0E0F3D1E881E064E88392
:100FBC00E1E0EA93E9E0EA93E2E0EA93AB81BC81F9
:100FCC008D819E81E8E083D1EA93EC81EA93A0E0E5
:100FDC00A0D0A4EFB1E060D1E1E0EA93E9E0EA93BC
:100FEC00A2E0E0D0D0D1E1E0EA93E9E0EA93A2E01C
:100FFC00D9D0C9D1E981E867E983E1E0EA93E9E076
:10100C00EA93E2E0EA93AB81BC818D819E81E8E0BA
:10101C005ED1EA93EC81EA93A0E07BD0E1E0EA9325
:10102C00E9E0EA93A2E0BED0AED1A4EFB1E034D1B6
:10103C00E1E0EA93EFE1EA93E1E0EA93EAE2EA9392
:10104C00E0E0EA93A0E065D0A4EFB1E025D1E1E0C7
:10105C00EA93EEE1EA93E1E0EA93EFEFEA93E0E062
:10106C00EA93A0E056D0A4EFB1E016D1909AA4E692
:10107C00B0E012D190986ED9FECFFFCFAA931A93FD
:10108C0010E0183070F4EA81E078E03811F4C39A7B
:10109C0001C0C398EA81EE0FEA83C59AC5981F5F19
:1010AC00F0CFE981E03011F0C19AC198188119C0D4
:1010BC00AA937CD10A8110E0183090F4E02FE078EC
:1010CC00E03811F4949801C0949A979888EB8A951B
:1010DC00F1F7979A88EB8A95F1F7000F1F5FECCF29
:1010EC006CD12396089562D100E010E0183068F4BA
:1010FC00000F979888EB8A95F1F7979A85990F5F6F
:10110C0088EB8A95F1F71F5FF1CFE02F09911991C8
:10111C000895AA9324971A93EF81E983EE81EA83C9
:10112C00ED81EB83EA85F0E0E130A0E0FA0721F4F1
:10113C00969AC098C0980FC0E230A0E0FA0721F44C
:10114C009698C09AC09807C0E330A0E0FA0719F44B
:10115C009698C098C09AE985EF73E987E068E987AB
:10116C0084E191E00197F1F7A985A2DF84E191E098
:10117C000197F1F710E0E8851E1750F4E12FF0E02D
:10118C00DE011196AE0FBF1FAC9192DF1F5FF3CF44
:10119C0084E191E00197F1F79698C098C098188176
:1011AC002B960895AA9328971A9310E0143050F4B4
:1011BC00E12FF0E0DE011596AE0FBF1FE0E0EC93DF
:1011CC001F5FF4CFEB85F0E0E130A0E0FA0721F4EB
:1011DC00969AC098C0980FC0E230A0E0FA0721F4AC
:1011EC009698C09AC09807C0E330A0E0FA0719F4AB
:1011FC009698C098C09A85E28A95F1F7EA85EF73C4
:10120C00EA87AA8555DF85E28A95F1F710E0E98532
:10121C001E1770F4E12FF0E0DE011596EA0FFB1FAC
:10122C00FF93EF9360DFAF91BF91EC931F5FEFCF14
:10123C0085E28A95F1F79698C098C098E0E0E9832A
:10124C00EA83EB83EC8310E0E9851E17F0F4A981A7
:10125C00BA818B819C81E8E02ED0E983FA836B8381
:10126C007C83E12FF0E0DE011596AE0FBF1FEC91F1
:10127C00F0E0A981BA818B819C813AD017D0E983A7
:10128C00FA836B837C831F5FDFCFE981FA816B81EB
:10129C007C8118812C960895109639F08DEC9AE08B
:1012AC000197F1F7A8951197C9F70895EA0FFB1F5D
:1012BC00681F791F0895EE230E2EFD01BC0131F03D
:1012CC00EE0FFF1F661F771F0A94D1F70895EE23C8
:1012DC000E2EFD01BC0131F076956795F795E795DB
:1012EC000A94D1F70895EE0FFF1FEE0FFF1F08951C
:1012FC006F2F660F660B762F08950024112490E152
:10130C00AA0FBB1F001C111C0E1A1F0A18F40E0E7C
:10131C001F1E01C0A1609A9599F7FD01D001089597
:10132C003F934F935F93002411244427552730E2B9
:10133C00AA0FBB1F881F991F001C111C441F551F8F
:10134C000E1A1F0A460B570B28F40E0E1F1E461FB3
:10135C00571F01C0A1603A9559F7FD01BC01D0019E
:10136C00CA015F914F913F910895C7DFFD01089528
:10137C00ED91FD916D917C9113970895ED93FD93F3
:10138C006D937C930895E883F9836A837B83089536
:10139C00E883E983EA83EB830895EA17FB07680780
:1013AC00790708955A934A933A932A931A930A9376
:1013BC0008955D814C813B812A81198108810895B2
:00000001FF
