:0E0000001AC0FECFFDCFFCCFFBCFFACFF9CF59
:10000E00F8CF3EC0F6CFF5CFF4CFF3CFF2CFF1CF8E
:10001E00F0CFEFCFEECFEDCF0100FF0000000000DC
:10002E000700070026000000F894EE27ECBBF1E075
:10003E00FBBFEBBFE5BF8DE0A2E0BB27ED938A953A
:10004E00E9F780E094E0A0E6ED930197E9F7EEE2A0
:10005E00F0E085919591009761F0A591B59105908D
:10006E001590BF01F00105900D920197E1F7FB018C
:10007E00F0CFEFE5EDBFE4E0EEBFC0E6D1E0EAC6BB
:10008E000A921A92FA926A937A938A939A93AA93FD
:10009E00BA93EA93FA93EFB7EA93E8EEEDBDE0E098
:1000AE00ECBDE1E0E71531F4D501E8EEF3E0B1D8AF
:1000BE006E2E27C0E2E0E71551F4D501E8EEF3E02D
:1000CE00E0D8DF01E4E6F0E0A4D86E2E1AC0E3E03B
:1000DE00E71551F4D501E4E6F0E0D3D8DF01EAE00C
:1000EE00F0E097D86E2E0DC0E4E0E71531F4D5019F
:1000FE00EAE0F0E0C6D86E2E04C0E5E0E71509F49C
:10010E00692CE72D7394EA93A62D13D0E5E0E7153D
:10011E0010F4E1E07E2EE991EFBFF991E991B991EA
:10012E00A9919991899179916991F9901990099074
:10013E001895AA93C5D81FEF00E0EA81F0E030973A
:10014E0011F415E035C0E130A0E0FA0711F41DE717
:10015E002FC0E230A0E0FA0711F416E429C0E33014
:10016E00A0E0FA0711F414E523C0E430A0E0FA078A
:10017E0011F41CE31DC0E530A0E0FA0711F414E9F8
:10018E0017C0E630A0E0FA0711F414E811C0E7300A
:10019E00A0E0FA0711F41DE50BC0E830A0E0FA0765
:1001AE0011F414E005C0E930A0E0FA0709F414E1F7
:1001BE00EB81F0E0E130A0E0FA0711F40DEF19C089
:1001CE00E230A0E0FA0711F40BEF13C0E330A0E029
:1001DE00FA0719F407EF1B7F0CC0E430A0E0FA0712
:1001EE0011F40FED06C0E530A0E0FA0711F40FEBA5
:1001FE001A810A93A0E0CED61A93A1E0CBD665D889
:10020E0024960895AA93E881F0E0E130A0E0FA0781
:10021E0011F4EFED1DC0E230A0E0FA0711F4EFEE9D
:10022E0017C0E330A0E0FA0711F4E7EF11C0E43095
:10023E00A0E0FA0711F4EBEF0BC0E530A0E0FA07EF
:10024E0011F4EDEF05C0E630A0E0FA0711F4EEEF81
:10025E009E2E64C0AA93E881F0E0309721F4919825
:10026E009298939833C0E130A0E0FA0721F4919A66
:10027E00929893982BC0E230A0E0FA0721F491985F
:10028E00929A939823C0E330A0E0FA0721F4919A52
:10029E00929A93981BC0E430A0E0FA0719F4919853
:1002AE00929813C0E530A0E0FA0719F4919A92984B
:1002BE000CC0E630A0E0FA0711F4919805C0E730C3
:1002CE00A0E0FA0719F4919A929A939A27C0AA93EA
:1002DE00E881F0E0E130A0E0FA0711F4A1E01DC0E2
:1002EE00E230A0E0FA0711F4A3E017C0E330A0E07B
:1002FE00FA0711F4A5E011C0E430A0E0FA0711F4FA
:10030E00A0E00BC0E530A0E0FA0711F4A2E005C0B2
:10031E00E630A0E0FA0711F4A4E09CDF21960895E0
:10032E00EF97EF97A297CAD79899EBC0A1E06ADF33
:10033E00A1E0CDDFEAE0EC1508F0E2C0CC24E82D18
:10034E008394A4E6B1E0F0E05AD7EA0FFB1FFF93C7
:10035E00EF93E1E0EA93E7E1EA93A3E0AFD6AF9142
:10036E00BF9198D7E8E28E1608F08824E0E0E0937B
:10037E006001E0936101E0936201E0936301DD248B
:10038E00E8E2DE16D8F4ED2DA4E6B1E0F0E037D7C2
:10039E00AE0FBF1F79D7A0916001B091610180911E
:1003AE006201909163010ED7E0936001F0936101B9
:1003BE006093620170936301D394E2CFDD24E8E28F
:1003CE00DE16A0F4ED2DF0E0DE01149618D7EA0F3C
:1003DE00FB1F0F01ED2DA4E6B1E0F0E010D7AE0F3C
:1003EE00BF1F52D7D00156D7D394E9CFDD24E8E210
:1003FE00DE1608F048C01D2D183208F042C0ED2D53
:10040E00F0E0DE011496FBD6AE0FBF1F3DD77F93F3
:10041E006F93FF93EF93E12FF0E0DE011496EFD68A
:10042E00AE0FBF1F31D7AF91BF918F919F9141D723
:10043E0030F5ED2DF0E0DE011496E1D6AE0FBF1FC4
:10044E002D913C91ED2DF0E0DE011496D8D6EA0FF9
:10045E00FB1F0F01E12FF0E0DE011496D0D6AE0F98
:10046E00BF1F12D7D00116D7E12FF0E0DE01149690
:10047E00C6D6AE0FBF1FF901662777270BD71F5FB2
:10048E00BBCFD394B4CFE0E0E0936001E093610181
:10049E00E0936201E0936301EDE0DE2EEBE1DE1608
:1004AE00D8F4ED2DA4E6B1E0F0E0A9D6AE0FBF1F53
:1004BE00EBD6A0916001B0916101809162019091A3
:1004CE00630180D6E0936001F09361016093620155
:1004DE0070936301D394E2CFA0916001B09161015A
:1004EE008091620190916301E5E0F1E060E070E0DF
:1004FE00A3D666277727DF01EEE0F0E08AD65F010C
:10050E00A0C49999EBC0A2E07DDEA2E0E0DEEAE0B5
:10051E00EC1508F0E2C0CC24E82D8394A4E6B1E0FB
:10052E00F0E06DD6EA0FFB1FFF93EF93E1E0EA9345
:10053E00E7E1EA93A3E0C2D5AF91BF91ABD6E8E273
:10054E008E1608F08824E0E0E0936001E0936101EC
:10055E00E0936201E0936301DD24E8E2DE16D8F455
:10056E00ED2DA4E6B1E0F0E04AD6AE0FBF1F8CD65B
:10057E00A0916001B091610180916201909163013F
:10058E0021D6E0936001F093610160936201709354
:10059E006301D394E2CFDD24E8E2DE16A0F4ED2D64
:1005AE00F0E0DE0114962BD6EA0FFB1F0F01ED2DA6
:1005BE00A4E6B1E0F0E023D6AE0FBF1F65D6D001A2
:1005CE0069D6D394E9CFDD24E8E2DE1608F048C000
:1005DE001D2D183208F042C0ED2DF0E0DE0114960C
:1005EE000ED6AE0FBF1F50D67F936F93FF93EF9330
:1005FE00E12FF0E0DE01149602D6AE0FBF1F44D6F7
:10060E00AF91BF918F919F9154D630F5ED2DF0E0C3
:10061E00DE011496F4D5AE0FBF1F2D913C91ED2D3A
:10062E00F0E0DE011496EBD5EA0FFB1F0F01E12F70
:10063E00F0E0DE011496E3D5AE0FBF1F25D6D00134
:10064E0029D6E12FF0E0DE011496D9D5AE0FBF1FEB
:10065E00F901662777271ED61F5FBBCFD394B4CF81
:10066E00E0E0E0936001E0936101E0936201E093CA
:10067E006301EDE0DE2EEBE1DE16D8F4ED2DA4E6FF
:10068E00B1E0F0E0BCD5AE0FBF1FFED5A09160016A
:10069E00B0916101809162019091630193D5E093D5
:1006AE006001F09361016093620170936301D394D2
:1006BE00E2CFA0916001B0916101809162019091B1
:1006CE006301E5E0F1E060E070E0B6D566277727DC
:1006DE00DF01EEE0F0E09DD55F01B3C39A99EBC068
:1006EE00A3E090DDA3E0F3DDEAE0EC1508F0E2C054
:1006FE00CC24E82D8394A4E6B1E0F0E080D5EA0F97
:10070E00FB1FFF93EF93E1E0EA93E7E1EA93A3E0A7
:10071E00D5D4AF91BF91BED5E8E28E1608F08824ED
:10072E00E0E0E0936001E0936101E0936201E09309
:10073E006301DD24E8E2DE16D8F4ED2DA4E6B1E087
:10074E00F0E05DD5AE0FBF1F9FD5A0916001B091B7
:10075E006101809162019091630134D5E093600153
:10076E00F09361016093620170936301D394E2CFC1
:10077E00DD24E8E2DE16A0F4ED2DF0E0DE011496A5
:10078E003ED5EA0FFB1F0F01ED2DA4E6B1E0F0E020
:10079E0036D5AE0FBF1F78D5D0017CD5D394E9CF17
:1007AE00DD24E8E2DE1608F048C01D2D183208F0F0
:1007BE0042C0ED2DF0E0DE01149621D5AE0FBF1F25
:1007CE0063D57F936F93FF93EF93E12FF0E0DE01FC
:1007DE00149615D5AE0FBF1F57D5AF91BF918F9100
:1007EE009F9167D530F5ED2DF0E0DE01149607D51B
:1007FE00AE0FBF1F2D913C91ED2DF0E0DE01149652
:10080E00FED4EA0FFB1F0F01E12FF0E0DE0114967C
:10081E00F6D4AE0FBF1F38D5D0013CD5E12FF0E096
:10082E00DE011496ECD4AE0FBF1FF90166277727B1
:10083E0031D51F5FBBCFD394B4CFE0E0E09360011E
:10084E00E0936101E0936201E0936301EDE0DE2E3F
:10085E00EBE1DE16D8F4ED2DA4E6B1E0F0E0CFD456
:10086E00AE0FBF1F11D5A0916001B09161018091B3
:10087E00620190916301A6D4E0936001F09361014F
:10088E006093620170936301D394E2CFA0916001F3
:10089E00B09161018091620190916301E5E0F1E018
:1008AE0060E070E0C9D466277727DF01EEE0F0E064
:1008BE00B0D45F01C6C29B99EBC0A4E0A3DCA4E058
:1008CE0006DDEAE0EC1508F0E2C0CC24E82D8394B6
:1008DE00A4E6B1E0F0E093D4EA0FFB1FFF93EF9391
:1008EE00E1E0EA93E7E1EA93A3E0E8D3AF91BF91A9
:1008FE00D1D4E8E28E1608F08824E0E0E09360019F
:10090E00E0936101E0936201E0936301DD24E8E28C
:10091E00DE16D8F4ED2DA4E6B1E0F0E070D4AE0F03
:10092E00BF1FB2D4A0916001B091610180916201AC
:10093E009091630147D4E0936001F093610160935D
:10094E00620170936301D394E2CFDD24E8E2DE16F8
:10095E00A0F4ED2DF0E0DE01149651D4EA0FFB1F4A
:10096E000F01ED2DA4E6B1E0F0E049D4AE0FBF1FAC
:10097E008BD4D0018FD4D394E9CFDD24E8E2DE16F8
:10098E0008F048C01D2D183208F042C0ED2DF0E0E1
:10099E00DE01149634D4AE0FBF1F76D47F936F93BF
:1009AE00FF93EF93E12FF0E0DE01149628D4AE0F03
:1009BE00BF1F6AD4AF91BF918F919F917AD430F5BA
:1009CE00ED2DF0E0DE0114961AD4AE0FBF1F2D915F
:1009DE003C91ED2DF0E0DE01149611D4EA0FFB1FD1
:1009EE000F01E12FF0E0DE01149609D4AE0FBF1F08
:1009FE004BD4D0014FD4E12FF0E0DE011496FFD39B
:100A0E00AE0FBF1FF9016627772744D41F5FBBCFF8
:100A1E00D394B4CFE0E0E0936001E0936101E09302
:100A2E006201E0936301EDE0DE2EEBE1DE16D8F419
:100A3E00ED2DA4E6B1E0F0E0E2D3AE0FBF1F24D45B
:100A4E00A0916001B091610180916201909163016A
:100A5E00B9D3E0936001F0936101609362017093EA
:100A6E006301D394E2CFA0916001B09161018091B6
:100A7E00620190916301E5E0F1E060E070E0DCD3AB
:100A8E0066277727DF01EEE0F0E0C3D35F01D9C11F
:100A9E009C99EBC0A5E0B6DBA5E019DCEAE0EC150D
:100AAE0008F0E2C0CC24E82D8394A4E6B1E0F0E097
:100ABE00A6D3EA0FFB1FFF93EF93E1E0EA93E7E182
:100ACE00EA93A3E0FBD2AF91BF91E4D3E8E28E1696
:100ADE0008F08824E0E0E0936001E0936101E09388
:100AEE006201E0936301DD24E8E2DE16D8F4ED2D19
:100AFE00A4E6B1E0F0E083D3AE0FBF1FC5D3A09143
:100B0E006001B091610180916201909163015AD3AD
:100B1E00E0936001F0936101609362017093630151
:100B2E00D394E2CFDD24E8E2DE16A0F4ED2DF0E062
:100B3E00DE01149664D3EA0FFB1F0F01ED2DA4E620
:100B4E00B1E0F0E05CD3AE0FBF1F9ED3D001A2D3B5
:100B5E00D394E9CFDD24E8E2DE1608F048C01D2D5F
:100B6E00183208F042C0ED2DF0E0DE01149647D3A6
:100B7E00AE0FBF1F89D37F936F93FF93EF93E12F38
:100B8E00F0E0DE0114963BD3AE0FBF1F7DD3AF91C5
:100B9E00BF918F919F918DD330F5ED2DF0E0DE0159
:100BAE0014962DD3AE0FBF1F2D913C91ED2DF0E07D
:100BBE00DE01149624D3EA0FFB1F0F01E12FF0E0A4
:100BCE00DE0114961CD3AE0FBF1F5ED3D00162D3CD
:100BDE00E12FF0E0DE01149612D3AE0FBF1FF90124
:100BEE006627772757D31F5FBBCFD394B4CFE0E0F0
:100BFE00E0936001E0936101E0936201E093630191
:100C0E00EDE0DE2EEBE1DE16D8F4ED2DA4E6B1E03C
:100C1E00F0E0F5D2AE0FBF1F37D3A0916001B091B7
:100C2E0061018091620190916301CCD2E0936001E9
:100C3E00F09361016093620170936301D394E2CFEC
:100C4E00A0916001B0916101809162019091630168
:100C5E00EDEFF0E060E070E0EFD266277727DF017E
:100C6E00EEE0F0E0D6D25F01ECC09D99EAC0A6E0BE
:100C7E00C9DAA6E02CDBEAE0EC1508F0E2C0CC24E1
:100C8E00E82D8394A4E6B1E0F0E0B9D2EA0FFB1FA1
:100C9E00FF93EF93E1E0EA93E7E1EA93A3E00ED24C
:100CAE00AF91BF91F7D2E8E28E1608F08824E0E00B
:100CBE00E0936001E0936101E0936201E0936301D0
:100CCE00DD24E8E2DE16D8F4ED2DA4E6B1E0F0E086
:100CDE0096D2AE0FBF1FD8D2A0916001B091610124
:100CEE0080916201909163016DD2E0936001F09367
:100CFE0061016093620170936301D394E2CFDD24AE
:100D0E00E8E2DE16A0F4ED2DF0E0DE01149677D2C7
:100D1E00EA0FFB1F0F01ED2DA4E6B1E0F0E06FD25C
:100D2E00AE0FBF1FB1D2D001B5D2D394E9CFDD241F
:100D3E00E8E2DE1608F048C01D2D183208F042C059
:100D4E00ED2DF0E0DE0114965AD2AE0FBF1F9CD2ED
:100D5E007F936F93FF93EF93E12FF0E0DE011496F4
:100D6E004ED2AE0FBF1F90D2AF91BF918F919F9178
:100D7E00A0D230F5ED2DF0E0DE01149640D2AE0F8C
:100D8E00BF1F2D913C91ED2DF0E0DE01149637D270
:100D9E00EA0FFB1F0F01E12FF0E0DE0114962FD2B8
:100DAE00AE0FBF1F71D2D00175D2E12FF0E0DE0180
:100DBE00149625D2AE0FBF1FF901662777276AD288
:100DCE001F5FBBCFD394B4CFE0E0E0936001E0931C
:100DDE006101E0936201E0936301EDE0DE2EEBE151
:100DEE00DE16D8F4ED2DA4E6B1E0F0E008D2AE0F99
:100DFE00BF1F4AD2A0916001B09161018091620142
:100E0E0090916301DFD1E0936001F09361016093F3
:100E1E00620170936301D394E2CFA0916001B0910F
:100E2E0061018091620190916301ECEEF0E060E06F
:100E3E0070E002D266277727DF01EEE0F0E0E9D11D
:100E4E005F01AAE0B0E0B4D1C3943DD2EF96EF9625
:100E5E00A69608952497E0E0E883E983EA83EB837E
:100E6E00EAE2E7BBE0E0E8BBE4BBEFE3E5BBEFEDB6
:100E7E00E1BBE0E0E2BBE3BFE2BFEFBDE2E0EEBD0F
:100E8E00EFEDEDBDEAE9ECBDE0E0E7BDE6BDEBBDA3
:100E9E00EABDE9BDE8BDE2BDE5BDE4BDE3BDE4E00C
:100EAE00E9BFE0E0E5BFEAB9E0E8E8B9E0E0E0BFBD
:100EBE00E6B9EDB9E6BF7894E8EBF2E25F01E0E067
:100ECE00F3D1E881E064E883E1E0EA93E9E0EA93B4
:100EDE00E2E0EA93AB81BC818D819E81E8E083D113
:100EEE00EA93EC81EA93A0E0A0D0A4EFB1E060D148
:100EFE00E1E0EA93E9E0EA93A2E0E0D0D0D1E1E0CC
:100F0E00EA93E9E0EA93A2E0D9D0C9D1E981E86792
:100F1E00E983E1E0EA93E9E0EA93E2E0EA93AB8168
:100F2E00BC818D819E81E8E05ED1EA93EC81EA93EB
:100F3E00A0E07BD0E1E0EA93E9E0EA93A2E0BED044
:100F4E00AED1A4EFB1E034D1E1E0EA93EFE1EA9360
:100F5E00E1E0EA93EAE2EA93E0E0EA93A0E065D00A
:100F6E00A4EFB1E025D1E1E0EA93EEE1EA93E1E00E
:100F7E00EA93EFEFEA93E0E0EA93A0E056D0A4EF15
:100F8E00B1E016D1909AA4E6B0E012D19098C8D9EB
:100F9E00FECFFFCFAA931A9310E0183070F4EA81B7
:100FAE00E078E03811F4C39A01C0C398EA81EE0FDD
:100FBE00EA83C59AC5981F5FF0CFE981E03011F042
:100FCE00C19AC198188119C0AA937AD10A8110E0EA
:100FDE00183090F4E02FE078E03811F4949801C0C6
:100FEE00949A979888EB8A95F1F7979A88EB8A9559
:100FFE00F1F7000F1F5FECCF68D12396089560D1F3
:10100E0000E010E0183068F4000F979888EB8A958E
:10101E00F1F7979A85990F5F88EB8A95F1F71F5F25
:10102E00F1CFE02F099119910895AA9324971A935D
:10103E00EF81E983EE81EA83ED81EB83EA85F0E0CF
:10104E00E130A0E0FA0721F4969AC098C0980FC03C
:10105E00E230A0E0FA0721F49698C09AC09807C033
:10106E00E330A0E0FA0719F49698C098C09AE98583
:10107E00EF73E987E068E98784E191E00197F1F782
:10108E00A985A2DF84E191E00197F1F710E0E885F0
:10109E001E1750F4E12FF0E0DE011196AE0FBF1FC8
:1010AE00AC9192DF1F5FF3CF84E191E00197F1F7EE
:1010BE009698C098C09818812B960895AA93289751
:1010CE001A9310E0143050F4E12FF0E0DE01159683
:1010DE00AE0FBF1FE0E0EC931F5FF4CFEB85F0E0A7
:1010EE00E130A0E0FA0721F4969AC098C0980FC09C
:1010FE00E230A0E0FA0721F49698C09AC09807C093
:10110E00E330A0E0FA0719F49698C098C09A85E2E9
:10111E008A95F1F7EA85EF73EA87AA8555DF85E2AE
:10112E008A95F1F710E0E9851E1770F4E12FF0E0D3
:10113E00DE011596EA0FFB1FFF93EF9360DFAF9171
:10114E00BF91EC931F5FEFCF85E28A95F1F79698EA
:10115E00C098C098E0E0E983EA83EB83EC8310E06B
:10116E00E9851E17F0F4A981BA818B819C81E8E094
:10117E002ED0E983FA836B837C83E12FF0E0DE01CE
:10118E001596AE0FBF1FEC91F0E0A981BA818B814D
:10119E009C813AD017D0E983FA836B837C831F5FDF
:1011AE00DFCFE981FA816B817C8118812C960895BD
:1011BE00109639F08DEC9AE00197F1F7A8951197FA
:1011CE00C9F70895EA0FFB1F681F791F0895EE23D4
:1011DE000E2EFD01BC0131F0EE0FFF1F661F771FB3
:1011EE000A94D1F70895EE230E2EFD01BC0131F0C5
:1011FE0076956795F795E7950A94D1F70895EE0FD2
:10120E00FF1FEE0FFF1F08956F2F660F660B762FD1
:10121E0008950024112490E1AA0FBB1F001C111C7D
:10122E000E1A1F0A18F40E0E1F1E01C0A1609A9509
:10123E0099F7FD01D00108953F934F935F930024DA
:10124E0011244427552730E2AA0FBB1F881F991F70
:10125E00001C111C441F551F0E1A1F0A460B570B5C
:10126E0028F40E0E1F1E461F571F01C0A1603A958F
:10127E0059F7FD01BC01D001CA015F914F913F9119
:10128E000895C7DFFD010895ED91FD916D917C915B
:10129E0013970895ED93FD936D937C930895E883D2
:1012AE00F9836A837B830895E883E983EA83EB837A
:1012BE000895EA17FB076807790708953A932A936A
:1012CE001A930A9308953B812A8119810881089502
:00000001FF
