:0400000019C0FECF56
:10000400FDCFFCCFFBCFFACFF9CFF8CF3DC0F6CF71
:10001400F5CFF4CFF3CFF2CFF1CFF0CFEFCFEECFD8
:10002400EDCF0100FF0000000500050026000000E0
:10003400F894EE27ECBBF1E0FBBFEBBFE5BF8DE02E
:10004400A2E0BB27ED938A95E9F780E094E0A0E66F
:10005400ED930197E9F7ECE2F0E085919591009733
:1000640061F0A591B59105901590BF01F00105903F
:100074000D920197E1F7FB01F0CFEFE5EDBFE4E06E
:10008400EEBFC0E6D1E07BC10A921A92FA926A935B
:100094007A938A939A93AA93BA93EA93FA93EFB7CB
:1000A400EA93E8EEEDBDE0E0ECBDE1E0E51531F406
:1000B400D401E8EEF3E0D8D24E2E27C0E2E0E515F5
:1000C40051F4D401E8EEF3E0E2D2DF01E4E6F0E03B
:1000D400CBD24E2E1AC0E3E0E51551F4D401E4E688
:1000E400F0E0D5D2DF01EAE0F0E0BED24E2E0DC042
:1000F400E4E0E51531F4D401EAE0F0E0C8D24E2E94
:1001040004C0E5E0E51509F4472C5A92A42D14D057
:100114005394E5E0E51510F4E1E05E2EE991EFBFBC
:10012400F991E991B991A9919991899179916991FB
:10013400F990199009901895AA93ACD21FEF00E09A
:10014400EA81F0E0309711F415E035C0E130A0E029
:10015400FA0711F41DE72FC0E230A0E0FA0711F40A
:1001640016E429C0E330A0E0FA0711F414E523C033
:10017400E430A0E0FA0711F41CE31DC0E530A0E070
:10018400FA0711F414E917C0E630A0E0FA0711F4F5
:1001940014E811C0E730A0E0FA0711F41DE50BC024
:1001A400E830A0E0FA0711F414E005C0E930A0E05B
:1001B400FA0709F414E1EB81F0E0E130A0E0FA077A
:1001C40011F40DEF19C0E230A0E0FA0711F40BEFBF
:1001D40013C0E330A0E0FA0719F407EF1B7F0CC04B
:1001E400E430A0E0FA0711F40FED06C0E530A0E01A
:1001F400FA0711F40FEB1A810A93A0E0F9D01A93CD
:10020400A1E0F6D04AD224960895AA93E881F0E0BA
:10021400E130A0E0FA0711F4EFED1DC0E230A0E0F8
:10022400FA0711F4EFEE17C0E330A0E0FA0711F477
:10023400E7EF11C0E430A0E0FA0711F4EBEF0BC0D4
:10024400E530A0E0FA0711F4EDEF05C0E630A0E0D8
:10025400FA0711F4EEEF7E2E64C0AA93E881F0E071
:10026400309721F491989298939833C0E130A0E0AC
:10027400FA0721F4919A929893982BC0E230A0E067
:10028400FA0721F49198929A939823C0E330A0E05E
:10029400FA0721F4919A929A93981BC0E430A0E053
:1002A400FA0719F49198929813C0E530A0E0FA0780
:1002B40019F4919A92980CC0E630A0E0FA0711F470
:1002C400919805C0E730A0E0FA0719F4919A929A40
:1002D400939A27C0AA93E881F0E0E130A0E0FA07FE
:1002E40011F4A1E01DC0E230A0E0FA0711F4A3E08C
:1002F40017C0E330A0E0FA0711F4A5E011C0E43020
:10030400A0E0FA0711F4A0E00BC0E530A0E0FA0782
:1003140011F4A2E005C0E630A0E0FA0711F4A4E06D
:100324009CDF21960895989904C0A1E06EDFA1E0B6
:100334001DC0999904C0A2E068DFA2E017C09A9991
:1003440004C0A3E062DFA3E011C09B9904C0A4E051
:100354005CDFA4E00BC09C9904C0A5E056DFA5E0D7
:1003640005C09D9904C0A6E050DFA6E0B3DFE1E03C
:10037400EA93E7E1EA93A3E0C4D04F010895EAE2E7
:10038400E7BBE0E0E8BBE4BBEFE3E5BBEFEDE1BBDB
:10039400E0E0E2BBE3BFE2BFEFBDE2E0EEBDEFEDC4
:1003A400EDBDEAE9ECBDE0E0E7BDE6BDEBBDEABDCD
:1003B400E9BDE8BDE2BDE5BDE4BDE3BDE4E0E9BF00
:1003C400E0E0E5BFEAB9E0E8E8B9E0E0E0BFE6B9BB
:1003D400EDB9E6BF789404D1E8EBF2E24F01A8EE60
:1003E400B3E022D1A4E6B0E01FD19DDFFBCFFFCF65
:1003F400AA931A9310E0183070F4EA81E078E03898
:1004040011F4C39A01C0C398EA81EE0FEA83C59A36
:10041400C5981F5FF0CFE981E03011F0C19AC1980F
:10042400188119C0AA9336D10A8110E0183090F4CB
:10043400E02FE078E03811F4949A01C09498000F0A
:10044400979A83E98A95F1F7979883E98A95F1F762
:100454001F5FECCF22D1239608951CD100E010E059
:10046400183068F4979A83E98A95F1F785990F5FB4
:10047400000F979883E98A95F1F71F5FF1CFE02F7A
:10048400099119910895AA9324971A93EF81E98306
:10049400EE81EA83ED81EB83EA85F0E0E130A0E0D0
:1004A400FA0721F4969AC098C2980FC0E230A0E0EF
:1004B400FA0721F49698C09AC29807C0E330A0E0E6
:1004C400FA0719F49698C098C29AE985E068E98712
:1004D400A985A8DF8AE48A95F1F710E0E8851E175C
:1004E40050F4E12FF0E0DE011196AE0FBF1FAC9186
:1004F40099DF1F5FF3CF9698C098C29818812B9606
:100504000895AA9328971A9310E0143050F4E12F19
:10051400F0E0DE011596AE0FBF1FE0E0EC931F5F25
:10052400F4CFEB85F0E0E130A0E0FA0721F4969AED
:10053400C098C2980FC0E230A0E0FA0721F4969860
:10054400C09AC29807C0E330A0E0FA0719F496985D
:10055400C098C29AEA85EF73EA87AA8563DF10E040
:10056400E9851E1770F4E12FF0E0DE011596EA0F1D
:10057400FB1FFF93EF9371DFAF91BF91EC931F5F6C
:10058400EFCF9698C098C298E0E0E983EA83EB83C2
:10059400EC8310E0E9851E17F0F4A981BA818B8100
:1005A4009C81E8E050D0E983FA836B837C83E12F5C
:1005B400F0E0DE011596AE0FBF1FEC91F0E0A981CB
:1005C400BA818B819C814BD039D0E983FA836B83C8
:1005D4007C831F5FDFCFE0E0F0E018812C96089564
:1005E400E1E0EA93E9E0EA93E2E0EA93E0E0EA9307
:1005F400EA93A0E048DFE1E0EA93EFE1EA93E1E087
:10060400EA93EAE2EA93E0E0EA93A0E03CDFE1E087
:10061400EA93EEE1EA93E1E0EA93E4E0EA93E0E0CE
:10062400EA93A0E030DF0895109639F08DEC9AE05B
:100634000197F1F7A8951197C9F70895EA0FFB1FE1
:10064400681F791F0895EE230E2EFD01BC0131F0C1
:10065400EE0FFF1F661F771F0A94D1F708956F2FBF
:10066400660F660B762F08950024112490E1AA0FDB
:10067400BB1F001C111C0E1A1F0A18F40E0E1F1E9D
:1006840001C0A1609A9599F7FD01D0010895ECDFAE
:10069400FD0108951A930A93089519810881089514
:00000001FF
